:100651004C696768743A0048756D3A0054656D3AA3
:0506610000250043002C
:10063B00C29FD29ED29CD28E438920758DFD758B25
:06064B00FDD2ACD2AF228B
:080741008F993099FDC2992245
:10068E00120162FF600C120741740129F9E43AFA73
:03069E0080EE22C9
:100253001206661207497BFF7A0679517D017F02F8
:1002630012059F7BFF7A0679587D017F0112059F56
:100273007BFF7A06795D7D087F0112059F7BFF7AFC
:100283000679627D077F0112059F7BFF7A067964F9
:100293007D0F7F0112059F12033E12063BE4F51703
:1002A300F518AF1874192FF8E6FE74082FF8A60690
:1002B3000518E518700205176403451770E47517F0
:1002C30000751804AF1874192FF8E6FE74082FF898
:1002D300A6060518E518700205176407451770E4AC
:1002E3007B007A0079087D057F0112059F7B007AE8
:1002F30000790C7D0C7F0112059F1204188F248E48
:10030300238D228C217B007A00790C12068E7A00D1
:10031300790812068E7A00794312068EAF24AE2333
:10032300AD22AC211200E1AB07AA06752900752A9C
:0B033300057D077F021204ED02029A14
:0606C600C2868FA0D28560
:0806CC007F027EEFDEFEDFFC81
:0106D4002203
:0A072400C2871206C6C2850206CC89
:0406E400ED2430FFD2
:0A06E800D2871206C6C2850206CCB6
:100666007F381207247F0C1207247F061207247F87
:040676000102072452
:0A052100EF24FFFDEE34FFFC7F0A1B
:08052B008E2B8F2C8C2D8D2EE0
:100533007F017E00E4FBEBC3952EE52D6480F87408
:0E0543008098500AAC2BAD2C1201A80B80E85A
:010551002287
:1006A100EF64017004ED148003ED243F4480FF12D8
:0306B100072422F9
:0A072E00AC031206A1AF040206E8B6
:06059F008B258A26892746
:1005A5001206A1E4FDAB25AA26A9278D8275830035
:0C05B50012017BFF60061206E80D80E9D1
:0105C1002217
:0404ED008A278B28A7
:1004F1001206A1AA2AEAFF7E00D394007480948098
:10050100401D120521AC27AD28CFCDCFCECCCE12C8
:0F051100020F7C007D0A12020F1206E41A80D638
:0105200022B8
:1003C7001206A1C3EA64809480400B7F2B1206E8D3
:1003D7008A358B36800E7F2D1206E8C3E49BF536EF
:1003E700E49AF535AA34EAFF7E00D394007480942A
:1003F70080401D120521AC35AD36CFCDCFCECCCE4A
:100407001201BA7C007D0A1201BA1206E41A80D6DC
:0104170022C2
:040465008A398B3A0B
:100469001206A1AA3CEAD39400748094804037EA2A
:1004790024FFFDE434FFFC7F107E0012052BAC390C
:10048900AD3ACFCDCFCECCCE1201BAEF540FFEC3C9
:10049900940A74809480EE5004243080022437FF3B
:0604A9001206E81A80BFF4
:0104AF00222A
:0404B0008A3F8B40B4
:1004B4001206A1AA42EAFF7E00D3940074809480BD
:1004C4004026EF24FFFDEE34FFFC7F0212052BAC27
:1004D4003FAD40CFCDCFCECCCE1201BAEF540124E4
:0804E40030FF1206E81A80CD7A
:0104EC0022ED
:03074E00DFFE22A9
:10060600D3EF9400EE940040147D6E7C00ED1D70D7
:0D061600011CED4C70F7EF1F70E61E80E335
:0106230022B4
:10062400D2917F0212074EC2917F147E00120606F9
:07063400D2917F1E02074E68
:10057900E4FEFDEDC394087480948050163091FD1B
:100589007F0812074EEE25E0FE3091010E2091FD05
:050599000D80E0AF063B
:01059E00223A
:10033E001206243091030203C63091FD7F28120766
:10034E004E1205798F251205798F261205798F2782
:10035E00120579A9071205798F2A7F1912074EE522
:10036E00252526FFE433FE7C00EF2527FFEC3EFE1D
:10037E00E92FFFEC3EFEEFB52A0DECB50609AA25D6
:10038E00852628AB278929EA75F00A842430F519C9
:10039E00EA75F00A84E5F02430F51A751B20751CF9
:1003AE0020EB75F00A842430F51DEB75F00A84E518
:0803BE00F02430F51E751F202C
:0103C6002214
:080738007F0A7EB7DEFEDFFC44
:010740002296
:02075100002284
:0F06D500D293D292120751C293120751C29222AE
:0C070000C293D292120751D2930207510B
:0E06F200A2009293D292120751C292020751B7
:0C070C00D292120751A293C29202075130
:1005C200E4FEEEC39408748094805013EF25E0FF9C
:1005D2009293D292120751C2921207510E80E302F5
:0205E200070C04
:10055200E4FFD293FEEEC39408748094805017EFA8
:1005620025E0FFD292120751A293E4334207C292CE
:060572001207510E80DFAC
:010578002260
:1006B400AD071206D57F461205C2AF051205C20268
:0206C40007002D
:1005E4001206D57F471205C21205528F43C200126C
:1005F40006F21205528F44D2001206F212070002CC
:020604000738B5
:10041800E4F525F526FFFE0F1206B47F101206B488
:100428007FB47E0012067A1205E4E4FEFF7525000B
:100438008543260FBF00010EEF64034E70EFE526DB
:10044800FE7C00E42544F526EC3EF525FCAD26129D
:0D04580000A87B9A7A997999783F020006F6
:050749007F010206B46F
:10067A00EF4E600F7D027CEFDCFEDDFCEF1F70F0B9
:03068A001E80EDE2
:01068D00224A
:10000300020157EC5D046005E85904700302014DD9
:10001300120118580460F6EC4860F2EC7004FDFE1F
:10002300FF22C860DB2481C85009C39860025006D0
:100033000201549850CAF582E9294B4A7005AB82F4
:1000430002014375F0007C1A7880C3EF9BEE9AEDB2
:1000530099400DC3EF9BFFEE9AFEED99FDE842F048
:10006300DC23ACF0D0E0FFD0E0FED0E0FDAB82209B
:10007300E7101BEB60BAEC2CFCEF33FFEE33FEED25
:1000830033FD02012FE803F830E705C0F075F000F7
:10009300EF2FFFEE33FEED33FD40B830E7C280AA09
:1000A30075F020800E75F010800575F0087D007ED8
:1000B300007F003392D530D503120245EC33401054
:1000C300EF33FFEE33FEED33FDEC33FCD5F0ED22E1
:0E00D300E5F0247EA2D513CC92E7CDCEFF221D
:1000E100EDD2E7CD33EC3392D524814006E4FFFE17
:1000F100FDFC22FCE4CFCECDCC24E0501174FF8076
:10010100EDC3CC13CCCD13CDCE13CECF13CF047012
:07011100F030D5DE020245CB
:10011800E9D2E7C933E833F892D5EDD2E7CD33EC2D
:0701280033FC5002B2D522A6
:10012F00EC30E7100FBF000C0EBE00080DBD000431
:10013F000BEB6014A2D5EB13FCED92E7FD2274FFDD
:10014F00FCFDFEFF22E480F8A2D574FF13FC7D8036
:03015F00E480EF4A
:03000000020718DC
:0C071800787FE4F6D8FD7581440202539E
:10016200BB010689828A83E0225002E722BBFE029B
:09017200E32289828A83E49322CE
:10017B00BB010CE58229F582E5833AF583E0225039
:10018B0006E92582F8E622BBFE06E92582F8E22283
:0D019B00E58229F582E5833AF583E493229D
:1001A800EF8DF0A4A8F0CF8CF0A428CE8DF0A42E6B
:0201B800FE2225
:1001BA00BC000BBE0029EF8DF084FFADF022E4CC29
:1001CA00F875F008EF2FFFEE33FEEC33FCEE9DECF2
:1001DA00984005FCEE9DFE0FD5F0E9E4CEFD22ED38
:1001EA00F8F5F0EE8420D21CFEADF075F008EF2F82
:1001FA00FFED33FD4007985006D5F0F222C398FD73
:05020A000FD5F0EA220F
:10020F00C2D5EC30E709B2D5E4C39DFDE49CFCEE0A
:10021F0030E715B2D5E4C39FFFE49EFE1201BAC3C7
:10022F00E49DFDE49CFC80031201BA30D507C3E4C2
:06023F009FFFE49EFE2279
:0E024500C3E49FFFE49EFEE49DFDE49CFC22CA
:00000001FF
